{
  "_format": "hh-sol-artifact-1",
  "contractName": "JobEscrow",
  "sourceName": "contracts/src/JobEscrow.sol",
  "abi": [
    {
      "inputs": [
        {
          "internalType": "address",
          "name": "_registry",
          "type": "address"
        },
        {
          "internalType": "address",
          "name": "_reputation",
          "type": "address"
        },
        {
          "internalType": "address",
          "name": "_receipt",
          "type": "address"
        }
      ],
      "stateMutability": "nonpayable",
      "type": "constructor"
    },
    {
      "inputs": [],
      "name": "ChallengeWindowClosed",
      "type": "error"
    },
    {
      "inputs": [],
      "name": "HeartbeatTimeout",
      "type": "error"
    },
    {
      "inputs": [],
      "name": "InsufficientDeposit",
      "type": "error"
    },
    {
      "inputs": [],
      "name": "InvalidHeartbeatSignature",
      "type": "error"
    },
    {
      "inputs": [],
      "name": "InvalidJobId",
      "type": "error"
    },
    {
      "inputs": [],
      "name": "JobAlreadyClaimed",
      "type": "error"
    },
    {
      "inputs": [],
      "name": "JobNotActive",
      "type": "error"
    },
    {
      "inputs": [],
      "name": "JobNotPending",
      "type": "error"
    },
    {
      "inputs": [],
      "name": "NotJobUser",
      "type": "error"
    },
    {
      "inputs": [
        {
          "internalType": "address",
          "name": "owner",
          "type": "address"
        }
      ],
      "name": "OwnableInvalidOwner",
      "type": "error"
    },
    {
      "inputs": [
        {
          "internalType": "address",
          "name": "account",
          "type": "address"
        }
      ],
      "name": "OwnableUnauthorizedAccount",
      "type": "error"
    },
    {
      "inputs": [],
      "name": "ProviderIsSlashed",
      "type": "error"
    },
    {
      "inputs": [],
      "name": "ProviderNotRegistered",
      "type": "error"
    },
    {
      "inputs": [],
      "name": "ReentrancyGuardReentrantCall",
      "type": "error"
    },
    {
      "inputs": [],
      "name": "ResultsNotSubmitted",
      "type": "error"
    },
    {
      "inputs": [],
      "name": "TransferFailed",
      "type": "error"
    },
    {
      "inputs": [],
      "name": "UnauthorizedChallenger",
      "type": "error"
    },
    {
      "anonymous": false,
      "inputs": [
        {
          "indexed": true,
          "internalType": "uint256",
          "name": "jobId",
          "type": "uint256"
        },
        {
          "indexed": false,
          "internalType": "uint256",
          "name": "blockNumber",
          "type": "uint256"
        },
        {
          "indexed": false,
          "internalType": "uint256",
          "name": "uptimeSeconds",
          "type": "uint256"
        }
      ],
      "name": "HeartbeatReceived",
      "type": "event"
    },
    {
      "anonymous": false,
      "inputs": [
        {
          "indexed": true,
          "internalType": "uint256",
          "name": "jobId",
          "type": "uint256"
        }
      ],
      "name": "JobCancelled",
      "type": "event"
    },
    {
      "anonymous": false,
      "inputs": [
        {
          "indexed": true,
          "internalType": "uint256",
          "name": "jobId",
          "type": "uint256"
        },
        {
          "indexed": true,
          "internalType": "address",
          "name": "provider",
          "type": "address"
        },
        {
          "indexed": false,
          "internalType": "uint256",
          "name": "startedAt",
          "type": "uint256"
        }
      ],
      "name": "JobClaimed",
      "type": "event"
    },
    {
      "anonymous": false,
      "inputs": [
        {
          "indexed": true,
          "internalType": "uint256",
          "name": "jobId",
          "type": "uint256"
        },
        {
          "indexed": true,
          "internalType": "address",
          "name": "provider",
          "type": "address"
        },
        {
          "indexed": false,
          "internalType": "uint256",
          "name": "payout",
          "type": "uint256"
        }
      ],
      "name": "JobCompleted",
      "type": "event"
    },
    {
      "anonymous": false,
      "inputs": [
        {
          "indexed": true,
          "internalType": "uint256",
          "name": "jobId",
          "type": "uint256"
        },
        {
          "indexed": true,
          "internalType": "address",
          "name": "user",
          "type": "address"
        },
        {
          "indexed": false,
          "internalType": "uint256",
          "name": "deposit",
          "type": "uint256"
        }
      ],
      "name": "JobSubmitted",
      "type": "event"
    },
    {
      "anonymous": false,
      "inputs": [
        {
          "indexed": true,
          "internalType": "address",
          "name": "previousOwner",
          "type": "address"
        },
        {
          "indexed": true,
          "internalType": "address",
          "name": "newOwner",
          "type": "address"
        }
      ],
      "name": "OwnershipTransferred",
      "type": "event"
    },
    {
      "anonymous": false,
      "inputs": [
        {
          "indexed": true,
          "internalType": "uint256",
          "name": "jobId",
          "type": "uint256"
        },
        {
          "indexed": true,
          "internalType": "address",
          "name": "provider",
          "type": "address"
        },
        {
          "indexed": true,
          "internalType": "address",
          "name": "challenger",
          "type": "address"
        },
        {
          "indexed": false,
          "internalType": "uint256",
          "name": "bounty",
          "type": "uint256"
        }
      ],
      "name": "ProviderSlashed",
      "type": "event"
    },
    {
      "anonymous": false,
      "inputs": [
        {
          "indexed": true,
          "internalType": "uint256",
          "name": "jobId",
          "type": "uint256"
        },
        {
          "indexed": false,
          "internalType": "string",
          "name": "resultCID",
          "type": "string"
        },
        {
          "indexed": false,
          "internalType": "uint256",
          "name": "instructionCount",
          "type": "uint256"
        }
      ],
      "name": "ResultsSubmitted",
      "type": "event"
    },
    {
      "inputs": [],
      "name": "CHALLENGE_BOUNTY_PERCENT",
      "outputs": [
        {
          "internalType": "uint256",
          "name": "",
          "type": "uint256"
        }
      ],
      "stateMutability": "view",
      "type": "function"
    },
    {
      "inputs": [],
      "name": "DOMAIN_SEPARATOR",
      "outputs": [
        {
          "internalType": "bytes32",
          "name": "",
          "type": "bytes32"
        }
      ],
      "stateMutability": "view",
      "type": "function"
    },
    {
      "inputs": [],
      "name": "HEARTBEAT_TYPEHASH",
      "outputs": [
        {
          "internalType": "bytes32",
          "name": "",
          "type": "bytes32"
        }
      ],
      "stateMutability": "view",
      "type": "function"
    },
    {
      "inputs": [],
      "name": "MAX_BLOCK_TIMEOUT",
      "outputs": [
        {
          "internalType": "uint256",
          "name": "",
          "type": "uint256"
        }
      ],
      "stateMutability": "view",
      "type": "function"
    },
    {
      "inputs": [
        {
          "internalType": "uint256",
          "name": "jobId",
          "type": "uint256"
        }
      ],
      "name": "cancelJob",
      "outputs": [],
      "stateMutability": "nonpayable",
      "type": "function"
    },
    {
      "inputs": [
        {
          "internalType": "uint256",
          "name": "jobId",
          "type": "uint256"
        }
      ],
      "name": "challengeProvider",
      "outputs": [],
      "stateMutability": "nonpayable",
      "type": "function"
    },
    {
      "inputs": [
        {
          "internalType": "uint256",
          "name": "jobId",
          "type": "uint256"
        }
      ],
      "name": "claimJob",
      "outputs": [],
      "stateMutability": "nonpayable",
      "type": "function"
    },
    {
      "inputs": [
        {
          "internalType": "uint256",
          "name": "jobId",
          "type": "uint256"
        }
      ],
      "name": "getJob",
      "outputs": [
        {
          "components": [
            {
              "internalType": "uint256",
              "name": "id",
              "type": "uint256"
            },
            {
              "internalType": "address",
              "name": "user",
              "type": "address"
            },
            {
              "components": [
                {
                  "internalType": "string",
                  "name": "dockerUri",
                  "type": "string"
                },
                {
                  "internalType": "uint256",
                  "name": "cpuMilli",
                  "type": "uint256"
                },
                {
                  "internalType": "uint256",
                  "name": "ramMiB",
                  "type": "uint256"
                },
                {
                  "internalType": "uint256",
                  "name": "vramMiB",
                  "type": "uint256"
                },
                {
                  "internalType": "uint256",
                  "name": "durationBlocks",
                  "type": "uint256"
                },
                {
                  "internalType": "uint256",
                  "name": "maxPricePerBlock",
                  "type": "uint256"
                }
              ],
              "internalType": "struct JobEscrow.JobSpec",
              "name": "spec",
              "type": "tuple"
            },
            {
              "internalType": "uint256",
              "name": "deposit",
              "type": "uint256"
            },
            {
              "internalType": "enum JobEscrow.JobState",
              "name": "state",
              "type": "uint8"
            },
            {
              "internalType": "address",
              "name": "provider",
              "type": "address"
            },
            {
              "internalType": "uint256",
              "name": "startedAt",
              "type": "uint256"
            },
            {
              "internalType": "uint256",
              "name": "completedAt",
              "type": "uint256"
            },
            {
              "internalType": "uint256",
              "name": "lastHeartbeatBlock",
              "type": "uint256"
            },
            {
              "internalType": "string",
              "name": "resultCID",
              "type": "string"
            },
            {
              "internalType": "uint256",
              "name": "instructionCount",
              "type": "uint256"
            }
          ],
          "internalType": "struct JobEscrow.Job",
          "name": "",
          "type": "tuple"
        }
      ],
      "stateMutability": "view",
      "type": "function"
    },
    {
      "inputs": [],
      "name": "getJobCount",
      "outputs": [
        {
          "internalType": "uint256",
          "name": "",
          "type": "uint256"
        }
      ],
      "stateMutability": "view",
      "type": "function"
    },
    {
      "inputs": [],
      "name": "getPendingJobs",
      "outputs": [
        {
          "internalType": "uint256[]",
          "name": "",
          "type": "uint256[]"
        }
      ],
      "stateMutability": "view",
      "type": "function"
    },
    {
      "inputs": [],
      "name": "gpuRegistry",
      "outputs": [
        {
          "internalType": "contract GPURegistry",
          "name": "",
          "type": "address"
        }
      ],
      "stateMutability": "view",
      "type": "function"
    },
    {
      "inputs": [],
      "name": "jobCounter",
      "outputs": [
        {
          "internalType": "uint256",
          "name": "",
          "type": "uint256"
        }
      ],
      "stateMutability": "view",
      "type": "function"
    },
    {
      "inputs": [
        {
          "internalType": "uint256",
          "name": "",
          "type": "uint256"
        }
      ],
      "name": "jobHeartbeatDigests",
      "outputs": [
        {
          "internalType": "bytes32",
          "name": "",
          "type": "bytes32"
        }
      ],
      "stateMutability": "view",
      "type": "function"
    },
    {
      "inputs": [
        {
          "internalType": "uint256",
          "name": "",
          "type": "uint256"
        }
      ],
      "name": "jobs",
      "outputs": [
        {
          "internalType": "uint256",
          "name": "id",
          "type": "uint256"
        },
        {
          "internalType": "address",
          "name": "user",
          "type": "address"
        },
        {
          "components": [
            {
              "internalType": "string",
              "name": "dockerUri",
              "type": "string"
            },
            {
              "internalType": "uint256",
              "name": "cpuMilli",
              "type": "uint256"
            },
            {
              "internalType": "uint256",
              "name": "ramMiB",
              "type": "uint256"
            },
            {
              "internalType": "uint256",
              "name": "vramMiB",
              "type": "uint256"
            },
            {
              "internalType": "uint256",
              "name": "durationBlocks",
              "type": "uint256"
            },
            {
              "internalType": "uint256",
              "name": "maxPricePerBlock",
              "type": "uint256"
            }
          ],
          "internalType": "struct JobEscrow.JobSpec",
          "name": "spec",
          "type": "tuple"
        },
        {
          "internalType": "uint256",
          "name": "deposit",
          "type": "uint256"
        },
        {
          "internalType": "enum JobEscrow.JobState",
          "name": "state",
          "type": "uint8"
        },
        {
          "internalType": "address",
          "name": "provider",
          "type": "address"
        },
        {
          "internalType": "uint256",
          "name": "startedAt",
          "type": "uint256"
        },
        {
          "internalType": "uint256",
          "name": "completedAt",
          "type": "uint256"
        },
        {
          "internalType": "uint256",
          "name": "lastHeartbeatBlock",
          "type": "uint256"
        },
        {
          "internalType": "string",
          "name": "resultCID",
          "type": "string"
        },
        {
          "internalType": "uint256",
          "name": "instructionCount",
          "type": "uint256"
        }
      ],
      "stateMutability": "view",
      "type": "function"
    },
    {
      "inputs": [],
      "name": "owner",
      "outputs": [
        {
          "internalType": "address",
          "name": "",
          "type": "address"
        }
      ],
      "stateMutability": "view",
      "type": "function"
    },
    {
      "inputs": [
        {
          "internalType": "uint256",
          "name": "",
          "type": "uint256"
        }
      ],
      "name": "pendingJobs",
      "outputs": [
        {
          "internalType": "uint256",
          "name": "",
          "type": "uint256"
        }
      ],
      "stateMutability": "view",
      "type": "function"
    },
    {
      "inputs": [],
      "name": "proofReceipt",
      "outputs": [
        {
          "internalType": "contract ProofReceipt",
          "name": "",
          "type": "address"
        }
      ],
      "stateMutability": "view",
      "type": "function"
    },
    {
      "inputs": [],
      "name": "renounceOwnership",
      "outputs": [],
      "stateMutability": "nonpayable",
      "type": "function"
    },
    {
      "inputs": [],
      "name": "reputationSystem",
      "outputs": [
        {
          "internalType": "contract ReputationSystem",
          "name": "",
          "type": "address"
        }
      ],
      "stateMutability": "view",
      "type": "function"
    },
    {
      "inputs": [
        {
          "internalType": "uint256",
          "name": "jobId",
          "type": "uint256"
        },
        {
          "internalType": "uint256",
          "name": "blockNumber",
          "type": "uint256"
        },
        {
          "internalType": "uint256",
          "name": "uptimeSeconds",
          "type": "uint256"
        },
        {
          "internalType": "uint256",
          "name": "cpuPercent",
          "type": "uint256"
        },
        {
          "internalType": "uint256",
          "name": "ramPercent",
          "type": "uint256"
        },
        {
          "internalType": "uint256",
          "name": "vramPercent",
          "type": "uint256"
        },
        {
          "internalType": "uint256",
          "name": "timestamp",
          "type": "uint256"
        },
        {
          "internalType": "bytes",
          "name": "signature",
          "type": "bytes"
        }
      ],
      "name": "submitHeartbeat",
      "outputs": [],
      "stateMutability": "nonpayable",
      "type": "function"
    },
    {
      "inputs": [
        {
          "components": [
            {
              "internalType": "string",
              "name": "dockerUri",
              "type": "string"
            },
            {
              "internalType": "uint256",
              "name": "cpuMilli",
              "type": "uint256"
            },
            {
              "internalType": "uint256",
              "name": "ramMiB",
              "type": "uint256"
            },
            {
              "internalType": "uint256",
              "name": "vramMiB",
              "type": "uint256"
            },
            {
              "internalType": "uint256",
              "name": "durationBlocks",
              "type": "uint256"
            },
            {
              "internalType": "uint256",
              "name": "maxPricePerBlock",
              "type": "uint256"
            }
          ],
          "internalType": "struct JobEscrow.JobSpec",
          "name": "spec",
          "type": "tuple"
        },
        {
          "internalType": "uint256",
          "name": "deposit",
          "type": "uint256"
        }
      ],
      "name": "submitJob",
      "outputs": [
        {
          "internalType": "uint256",
          "name": "jobId",
          "type": "uint256"
        }
      ],
      "stateMutability": "payable",
      "type": "function"
    },
    {
      "inputs": [
        {
          "internalType": "uint256",
          "name": "jobId",
          "type": "uint256"
        },
        {
          "internalType": "string",
          "name": "resultCID",
          "type": "string"
        },
        {
          "internalType": "uint256",
          "name": "instructionCount",
          "type": "uint256"
        }
      ],
      "name": "submitResults",
      "outputs": [],
      "stateMutability": "nonpayable",
      "type": "function"
    },
    {
      "inputs": [
        {
          "internalType": "address",
          "name": "newOwner",
          "type": "address"
        }
      ],
      "name": "transferOwnership",
      "outputs": [],
      "stateMutability": "nonpayable",
      "type": "function"
    }
  ],
  "bytecode": "0x60a06040523480156200001157600080fd5b506040516200444938038062004449833981810160405281019062000037919062000390565b33600073ffffffffffffffffffffffffffffffffffffffff168173ffffffffffffffffffffffffffffffffffffffff1603620000ad5760006040517f1e4fbdf7000000000000000000000000000000000000000000000000000000008152600401620000a49190620003fd565b60405180910390fd5b620000be816200026260201b60201c565b506001808190555082600260006101000a81548173ffffffffffffffffffffffffffffffffffffffff021916908373ffffffffffffffffffffffffffffffffffffffff16021790555081600360006101000a81548173ffffffffffffffffffffffffffffffffffffffff021916908373ffffffffffffffffffffffffffffffffffffffff16021790555080600460006101000a81548173ffffffffffffffffffffffffffffffffffffffff021916908373ffffffffffffffffffffffffffffffffffffffff1602179055507f8b73c3c69bb8fe3d512ecc4cf759cc79239f7b179b0ffacaa9a75d522b39400f6040518060400160405280600981526020017f4449434f4d505554450000000000000000000000000000000000000000000000815250805190602001206040518060400160405280600181526020017f31000000000000000000000000000000000000000000000000000000000000008152508051906020012046306040516020016200023c95949392919062000450565b6040516020818303038152906040528051906020012060808181525050505050620004ad565b60008060009054906101000a900473ffffffffffffffffffffffffffffffffffffffff169050816000806101000a81548173ffffffffffffffffffffffffffffffffffffffff021916908373ffffffffffffffffffffffffffffffffffffffff1602179055508173ffffffffffffffffffffffffffffffffffffffff168173ffffffffffffffffffffffffffffffffffffffff167f8be0079c531659141344cd1fd0a4f28419497f9722a3daafe3b4186f6b6457e060405160405180910390a35050565b600080fd5b600073ffffffffffffffffffffffffffffffffffffffff82169050919050565b600062000358826200032b565b9050919050565b6200036a816200034b565b81146200037657600080fd5b50565b6000815190506200038a816200035f565b92915050565b600080600060608486031215620003ac57620003ab62000326565b5b6000620003bc8682870162000379565b9350506020620003cf8682870162000379565b9250506040620003e28682870162000379565b9150509250925092565b620003f7816200034b565b82525050565b6000602082019050620004146000830184620003ec565b92915050565b6000819050919050565b6200042f816200041a565b82525050565b6000819050919050565b6200044a8162000435565b82525050565b600060a08201905062000467600083018862000424565b62000476602083018762000424565b62000485604083018662000424565b6200049460608301856200043f565b620004a36080830184620003ec565b9695505050505050565b608051613f79620004d060003960008181610e0a01526123070152613f796000f3fe6080604052600436106101405760003560e01c8063692224ff116100b6578063bf22c4571161006f578063bf22c4571461044b578063c19db05314610488578063e3e4b9fb146104b3578063e87ab91a146104dc578063f2fde38b14610505578063f9f167621461052e57610140565b8063692224ff1461034d578063715018a6146103765780638da5cb5b1461038d57806394946e17146103b8578063b02b4a2f146103e3578063b8bfe6911461040e57610140565b80631dffa3dc116101085780631dffa3dc1461024f5780633644e5151461027857806350355d76146102a3578063612e76dd146102ce5780636587eda1146102f957806367d2a3721461032457610140565b80630123b90f146101455780630480b2ba14610170578063074593c5146101ad57806317a85f55146101dd578063180aedf314610208575b600080fd5b34801561015157600080fd5b5061015a610559565b60405161016791906128bc565b60405180910390f35b34801561017c57600080fd5b5061019760048036038101906101929190612921565b61057f565b6040516101a4919061295d565b60405180910390f35b6101c760048036038101906101c2919061299c565b6105a3565b6040516101d4919061295d565b60405180910390f35b3480156101e957600080fd5b506101f261089e565b6040516101ff9190612ab6565b60405180910390f35b34801561021457600080fd5b5061022f600480360381019061022a9190612921565b6108f6565b6040516102469b9a99989796959493929190612cd3565b60405180910390f35b34801561025b57600080fd5b5061027660048036038101906102719190612921565b610af3565b005b34801561028457600080fd5b5061028d610e08565b60405161029a9190612da5565b60405180910390f35b3480156102af57600080fd5b506102b8610e2c565b6040516102c5919061295d565b60405180910390f35b3480156102da57600080fd5b506102e3610e32565b6040516102f09190612de1565b60405180910390f35b34801561030557600080fd5b5061030e610e58565b60405161031b9190612e1d565b60405180910390f35b34801561033057600080fd5b5061034b60048036038101906103469190612921565b610e7e565b005b34801561035957600080fd5b50610374600480360381019061036f9190612e9d565b611425565b005b34801561038257600080fd5b5061038b611ac0565b005b34801561039957600080fd5b506103a2611ad4565b6040516103af9190612f11565b60405180910390f35b3480156103c457600080fd5b506103cd611afd565b6040516103da919061295d565b60405180910390f35b3480156103ef57600080fd5b506103f8611b03565b604051610405919061295d565b60405180910390f35b34801561041a57600080fd5b5061043560048036038101906104309190612921565b611b0d565b6040516104429190612da5565b60405180910390f35b34801561045757600080fd5b50610472600480360381019061046d9190612921565b611b25565b60405161047f91906130c9565b60405180910390f35b34801561049457600080fd5b5061049d611de0565b6040516104aa919061295d565b60405180910390f35b3480156104bf57600080fd5b506104da60048036038101906104d59190612921565b611de5565b005b3480156104e857600080fd5b5061050360048036038101906104fe9190613141565b61215d565b005b34801561051157600080fd5b5061052c60048036038101906105279190613243565b61241f565b005b34801561053a57600080fd5b506105436124a5565b6040516105509190612da5565b60405180910390f35b600260009054906101000a900473ffffffffffffffffffffffffffffffffffffffff1681565b6008818154811061058f57600080fd5b906000526020600020016000915090505481565b6000813410156105df576040517f0e1eddda00000000000000000000000000000000000000000000000000000000815260040160405180910390fd5b600560008154809291906105f29061329f565b919050555060055490506040518061016001604052808281526020013373ffffffffffffffffffffffffffffffffffffffff16815260200184610634906134dd565b81526020018381526020016000600481111561065357610652612c12565b5b8152602001600073ffffffffffffffffffffffffffffffffffffffff1681526020016000815260200160008152602001600081526020016040518060200160405280600081525081526020016000815250600660008381526020019081526020016000206000820151816000015560208201518160010160006101000a81548173ffffffffffffffffffffffffffffffffffffffff021916908373ffffffffffffffffffffffffffffffffffffffff160217905550604082015181600201600082015181600001908161072691906136f2565b506020820151816001015560408201518160020155606082015181600301556080820151816004015560a0820151816005015550506060820151816008015560808201518160090160006101000a81548160ff021916908360048111156107905761078f612c12565b5b021790555060a08201518160090160016101000a81548173ffffffffffffffffffffffffffffffffffffffff021916908373ffffffffffffffffffffffffffffffffffffffff16021790555060c082015181600a015560e082015181600b015561010082015181600c015561012082015181600d01908161081191906136f2565b5061014082015181600e015590505060088190806001815401808255809150506001900390600052602060002001600090919091909150553373ffffffffffffffffffffffffffffffffffffffff16817f2a1891fce7851bec7afbe4c6f89d0aa0bed5e261151ab172a3d065c780e547c484604051610890919061295d565b60405180910390a392915050565b606060088054806020026020016040519081016040528092919081815260200182805480156108ec57602002820191906000526020600020905b8154815260200190600101908083116108d8575b5050505050905090565b60066020528060005260406000206000915090508060000154908060010160009054906101000a900473ffffffffffffffffffffffffffffffffffffffff1690806002016040518060c00160405290816000820180546109559061351f565b80601f01602080910402602001604051908101604052809291908181526020018280546109819061351f565b80156109ce5780601f106109a3576101008083540402835291602001916109ce565b820191906000526020600020905b8154815290600101906020018083116109b157829003601f168201915b5050505050815260200160018201548152602001600282015481526020016003820154815260200160048201548152602001600582015481525050908060080154908060090160009054906101000a900460ff16908060090160019054906101000a900473ffffffffffffffffffffffffffffffffffffffff169080600a01549080600b01549080600c01549080600d018054610a6a9061351f565b80601f0160208091040260200160405190810160405280929190818152602001828054610a969061351f565b8015610ae35780601f10610ab857610100808354040283529160200191610ae3565b820191906000526020600020905b815481529060010190602001808311610ac657829003601f168201915b50505050509080600e015490508b565b60006006600083815260200190815260200160002090506000816000015403610b48576040517f9a358cc500000000000000000000000000000000000000000000000000000000815260040160405180910390fd5b3373ffffffffffffffffffffffffffffffffffffffff168160010160009054906101000a900473ffffffffffffffffffffffffffffffffffffffff1673ffffffffffffffffffffffffffffffffffffffff1614610bd1576040517fe2be7ee400000000000000000000000000000000000000000000000000000000815260040160405180910390fd5b60006004811115610be557610be4612c12565b5b8160090160009054906101000a900460ff166004811115610c0957610c08612c12565b5b14610c40576040517f04c0a3d500000000000000000000000000000000000000000000000000000000815260040160405180910390fd5b60048160090160006101000a81548160ff02191690836004811115610c6857610c67612c12565b5b021790555060005b600880549050811015610d2e578260088281548110610c9257610c916137c4565b5b906000526020600020015403610d215760086001600880549050610cb691906137f3565b81548110610cc757610cc66137c4565b5b906000526020600020015460088281548110610ce657610ce56137c4565b5b90600052602060002001819055506008805480610d0657610d05613827565b5b60019003818190600052602060002001600090559055610d2e565b8080600101915050610c70565b5060003373ffffffffffffffffffffffffffffffffffffffff168260080154604051610d5990613887565b60006040518083038185875af1925050503d8060008114610d96576040519150601f19603f3d011682016040523d82523d6000602084013e610d9b565b606091505b5050905080610dd6576040517f90b8ec1800000000000000000000000000000000000000000000000000000000815260040160405180910390fd5b827f58243f872c550ad02802199ade99eb4250f6bb19e9abbf2d3de7b969c0eb5e4f60405160405180910390a2505050565b7f000000000000000000000000000000000000000000000000000000000000000081565b60055481565b600460009054906101000a900473ffffffffffffffffffffffffffffffffffffffff1681565b600360009054906101000a900473ffffffffffffffffffffffffffffffffffffffff1681565b60006006600083815260200190815260200160002090506000816000015403610ed3576040517f9a358cc500000000000000000000000000000000000000000000000000000000815260040160405180910390fd5b60016004811115610ee757610ee6612c12565b5b8160090160009054906101000a900460ff166004811115610f0b57610f0a612c12565b5b14610f42576040517fe0e5fd0e00000000000000000000000000000000000000000000000000000000815260040160405180910390fd5b61012c81600c0154610f54919061389c565b4311610f8c576040517f2b11bdc200000000000000000000000000000000000000000000000000000000815260040160405180910390fd5b60038160090160006101000a81548160ff02191690836004811115610fb457610fb3612c12565b5b02179055506000600260009054906101000a900473ffffffffffffffffffffffffffffffffffffffff1673ffffffffffffffffffffffffffffffffffffffff166355f21eb78360090160019054906101000a900473ffffffffffffffffffffffffffffffffffffffff166040518263ffffffff1660e01b815260040161103a9190612f11565b600060405180830381865afa158015611057573d6000803e3d6000fd5b505050506040513d6000823e3d601f19601f820116820180604052508101906110809190613a72565b905060006064601483604001516110979190613abb565b6110a19190613b2c565b905081604001518111156110b757816040015190505b600260009054906101000a900473ffffffffffffffffffffffffffffffffffffffff1673ffffffffffffffffffffffffffffffffffffffff16633febfc0f8460090160019054906101000a900473ffffffffffffffffffffffffffffffffffffffff16836040518363ffffffff1660e01b8152600401611138929190613b5d565b600060405180830381600087803b15801561115257600080fd5b505af1158015611166573d6000803e3d6000fd5b50505050600360009054906101000a900473ffffffffffffffffffffffffffffffffffffffff1673ffffffffffffffffffffffffffffffffffffffff16635309564c8460090160019054906101000a900473ffffffffffffffffffffffffffffffffffffffff166040518263ffffffff1660e01b81526004016111e99190612f11565b600060405180830381600087803b15801561120357600080fd5b505af1158015611217573d6000803e3d6000fd5b5050505060008360010160009054906101000a900473ffffffffffffffffffffffffffffffffffffffff1673ffffffffffffffffffffffffffffffffffffffff16846008015460405161126990613887565b60006040518083038185875af1925050503d80600081146112a6576040519150601f19603f3d011682016040523d82523d6000602084013e6112ab565b606091505b50509050806112e6576040517f90b8ec1800000000000000000000000000000000000000000000000000000000815260040160405180910390fd5b60008211156113945760003373ffffffffffffffffffffffffffffffffffffffff168360405161131590613887565b60006040518083038185875af1925050503d8060008114611352576040519150601f19603f3d011682016040523d82523d6000602084013e611357565b606091505b5050905080611392576040517f90b8ec1800000000000000000000000000000000000000000000000000000000815260040160405180910390fd5b505b3373ffffffffffffffffffffffffffffffffffffffff168460090160019054906101000a900473ffffffffffffffffffffffffffffffffffffffff1673ffffffffffffffffffffffffffffffffffffffff16867fce7691ab9fe8123fa6bb0aeac4f2b30834dc3c7357cfb1449c7ea40eb13864d185604051611416919061295d565b60405180910390a45050505050565b6000600660008681526020019081526020016000209050600081600001540361147a576040517f9a358cc500000000000000000000000000000000000000000000000000000000815260040160405180910390fd5b6001600481111561148e5761148d612c12565b5b8160090160009054906101000a900460ff1660048111156114b2576114b1612c12565b5b146114e9576040517fe0e5fd0e00000000000000000000000000000000000000000000000000000000815260040160405180910390fd5b8060090160019054906101000a900473ffffffffffffffffffffffffffffffffffffffff1673ffffffffffffffffffffffffffffffffffffffff163373ffffffffffffffffffffffffffffffffffffffff1614611572576040517f52d787e300000000000000000000000000000000000000000000000000000000815260040160405180910390fd5b838382600d019182611585929190613b91565b508181600e01819055504381600b018190555060028160090160006101000a81548160ff021916908360048111156115c0576115bf612c12565b5b0217905550600081600a0154436115d791906137f3565b905060008260020160050154826115ee9190613abb565b9050826008015481111561160457826008015490505b600081846008015461161691906137f3565b9050600260009054906101000a900473ffffffffffffffffffffffffffffffffffffffff1673ffffffffffffffffffffffffffffffffffffffff16635813c1cd8560090160019054906101000a900473ffffffffffffffffffffffffffffffffffffffff166040518263ffffffff1660e01b81526004016116979190612f11565b600060405180830381600087803b1580156116b157600080fd5b505af11580156116c5573d6000803e3d6000fd5b50505050600360009054906101000a900473ffffffffffffffffffffffffffffffffffffffff1673ffffffffffffffffffffffffffffffffffffffff16638a9e9dec8560090160019054906101000a900473ffffffffffffffffffffffffffffffffffffffff166040518263ffffffff1660e01b81526004016117489190612f11565b600060405180830381600087803b15801561176257600080fd5b505af1158015611776573d6000803e3d6000fd5b50505050600460009054906101000a900473ffffffffffffffffffffffffffffffffffffffff1673ffffffffffffffffffffffffffffffffffffffff166329487d7d8560010160009054906101000a900473ffffffffffffffffffffffffffffffffffffffff168a8760090160019054906101000a900473ffffffffffffffffffffffffffffffffffffffff168b8b8b896040518863ffffffff1660e01b81526004016118299796959493929190613c8e565b6020604051808303816000875af1158015611848573d6000803e3d6000fd5b505050506040513d601f19601f8201168201806040525081019061186c9190613cf8565b5060008460090160019054906101000a900473ffffffffffffffffffffffffffffffffffffffff1673ffffffffffffffffffffffffffffffffffffffff16836040516118b790613887565b60006040518083038185875af1925050503d80600081146118f4576040519150601f19603f3d011682016040523d82523d6000602084013e6118f9565b606091505b5050905080611934576040517f90b8ec1800000000000000000000000000000000000000000000000000000000815260040160405180910390fd5b6000821115611a065760008560010160009054906101000a900473ffffffffffffffffffffffffffffffffffffffff1673ffffffffffffffffffffffffffffffffffffffff168360405161198790613887565b60006040518083038185875af1925050503d80600081146119c4576040519150601f19603f3d011682016040523d82523d6000602084013e6119c9565b606091505b5050905080611a04576040517f90b8ec1800000000000000000000000000000000000000000000000000000000815260040160405180910390fd5b505b887fd3c20c7a5445002113957b8bff0a49a65c803f4ae9bd622cf979ad2e6ef20eef898989604051611a3a93929190613d25565b60405180910390a28460090160019054906101000a900473ffffffffffffffffffffffffffffffffffffffff1673ffffffffffffffffffffffffffffffffffffffff16897f4dbba472101e9f148a3a5ecbe793f0ee16a7efe4bf3f8cbfab5330e1642ef95585604051611aad919061295d565b60405180910390a3505050505050505050565b611ac86124c9565b611ad26000612550565b565b60008060009054906101000a900473ffffffffffffffffffffffffffffffffffffffff16905090565b61012c81565b6000600554905090565b60076020528060005260406000206000915090505481565b611b2d612769565b6006600083815260200190815260200160002060405180610160016040529081600082015481526020016001820160009054906101000a900473ffffffffffffffffffffffffffffffffffffffff1673ffffffffffffffffffffffffffffffffffffffff1673ffffffffffffffffffffffffffffffffffffffff168152602001600282016040518060c0016040529081600082018054611bcc9061351f565b80601f0160208091040260200160405190810160405280929190818152602001828054611bf89061351f565b8015611c455780601f10611c1a57610100808354040283529160200191611c45565b820191906000526020600020905b815481529060010190602001808311611c2857829003601f168201915b50505050508152602001600182015481526020016002820154815260200160038201548152602001600482015481526020016005820154815250508152602001600882015481526020016009820160009054906101000a900460ff166004811115611cb357611cb2612c12565b5b6004811115611cc557611cc4612c12565b5b81526020016009820160019054906101000a900473ffffffffffffffffffffffffffffffffffffffff1673ffffffffffffffffffffffffffffffffffffffff1673ffffffffffffffffffffffffffffffffffffffff168152602001600a8201548152602001600b8201548152602001600c8201548152602001600d82018054611d4d9061351f565b80601f0160208091040260200160405190810160405280929190818152602001828054611d799061351f565b8015611dc65780601f10611d9b57610100808354040283529160200191611dc6565b820191906000526020600020905b815481529060010190602001808311611da957829003601f168201915b50505050508152602001600e820154815250509050919050565b601481565b60006006600083815260200190815260200160002090506000816000015403611e3a576040517f9a358cc500000000000000000000000000000000000000000000000000000000815260040160405180910390fd5b60006004811115611e4e57611e4d612c12565b5b8160090160009054906101000a900460ff166004811115611e7257611e71612c12565b5b14611ea9576040517f04c0a3d500000000000000000000000000000000000000000000000000000000815260040160405180910390fd5b6000600260009054906101000a900473ffffffffffffffffffffffffffffffffffffffff1673ffffffffffffffffffffffffffffffffffffffff166355f21eb7336040518263ffffffff1660e01b8152600401611f069190612f11565b600060405180830381865afa158015611f23573d6000803e3d6000fd5b505050506040513d6000823e3d601f19601f82011682018060405250810190611f4c9190613a72565b90508060600151611f89576040517fd5aef8c600000000000000000000000000000000000000000000000000000000815260040160405180910390fd5b806080015115611fc5576040517fe750003800000000000000000000000000000000000000000000000000000000815260040160405180910390fd5b60005b600880549050811015612086578360088281548110611fea57611fe96137c4565b5b906000526020600020015403612079576008600160088054905061200e91906137f3565b8154811061201f5761201e6137c4565b5b90600052602060002001546008828154811061203e5761203d6137c4565b5b9060005260206000200181905550600880548061205e5761205d613827565b5b60019003818190600052602060002001600090559055612086565b8080600101915050611fc8565b50338260090160016101000a81548173ffffffffffffffffffffffffffffffffffffffff021916908373ffffffffffffffffffffffffffffffffffffffff16021790555060018260090160006101000a81548160ff021916908360048111156120f2576120f1612c12565b5b02179055504382600a01819055504382600c01819055503373ffffffffffffffffffffffffffffffffffffffff16837f76fd1071bb2e8e5da7695a00bf50a2ba73ff07ba5f83b6a36729fdb0d290587e43604051612150919061295d565b60405180910390a3505050565b6000600660008b8152602001908152602001600020905060008160000154036121b2576040517f9a358cc500000000000000000000000000000000000000000000000000000000815260040160405180910390fd5b600160048111156121c6576121c5612c12565b5b8160090160009054906101000a900460ff1660048111156121ea576121e9612c12565b5b14612221576040517fe0e5fd0e00000000000000000000000000000000000000000000000000000000815260040160405180910390fd5b8060090160019054906101000a900473ffffffffffffffffffffffffffffffffffffffff1673ffffffffffffffffffffffffffffffffffffffff163373ffffffffffffffffffffffffffffffffffffffff16146122aa576040517f52d787e300000000000000000000000000000000000000000000000000000000815260040160405180910390fd5b60007f6dc55e03f9c0715bab4b5e67d9933a95147ba8efbb7c26ac8bc9d7a47f6f5d138b8b8b8b8b8b8b6040516020016122eb989796959493929190613d57565b60405160208183030381529060405280519060200120905060007f000000000000000000000000000000000000000000000000000000000000000082604051602001612338929190613e4d565b6040516020818303038152906040528051906020012090506123808360090160019054906101000a900473ffffffffffffffffffffffffffffffffffffffff16828787612614565b6123b6576040517f64fad1ac00000000000000000000000000000000000000000000000000000000815260040160405180910390fd5b4383600c018190555080600760008e8152602001908152602001600020819055508b7f9b4d1a8f2a53933cbf437272f74adc54e7a13204fd28affca6cb9eff8193d3c4438c604051612409929190613e84565b60405180910390a2505050505050505050505050565b6124276124c9565b600073ffffffffffffffffffffffffffffffffffffffff168173ffffffffffffffffffffffffffffffffffffffff16036124995760006040517f1e4fbdf70000000000000000000000000000000000000000000000000000000081526004016124909190612f11565b60405180910390fd5b6124a281612550565b50565b7f6dc55e03f9c0715bab4b5e67d9933a95147ba8efbb7c26ac8bc9d7a47f6f5d1381565b6124d1612761565b73ffffffffffffffffffffffffffffffffffffffff166124ef611ad4565b73ffffffffffffffffffffffffffffffffffffffff161461254e57612512612761565b6040517f118cdaa70000000000000000000000000000000000000000000000000000000081526004016125459190612f11565b60405180910390fd5b565b60008060009054906101000a900473ffffffffffffffffffffffffffffffffffffffff169050816000806101000a81548173ffffffffffffffffffffffffffffffffffffffff021916908373ffffffffffffffffffffffffffffffffffffffff1602179055508173ffffffffffffffffffffffffffffffffffffffff168173ffffffffffffffffffffffffffffffffffffffff167f8be0079c531659141344cd1fd0a4f28419497f9722a3daafe3b4186f6b6457e060405160405180910390a35050565b60006041838390501461262a5760009050612759565b60008060008535925060208601359150604086013560001a9050601b8160ff16101561266057601b8161265d9190613eba565b90505b7f7fffffffffffffffffffffffffffffff5d576e7357a4501ddfe92f46681b20a08260001c11156126975760009350505050612759565b6000600188838686604051600081526020016040526040516126bc9493929190613efe565b6020604051602081039080840390855afa1580156126de573d6000803e3d6000fd5b505050602060405103519050600073ffffffffffffffffffffffffffffffffffffffff168173ffffffffffffffffffffffffffffffffffffffff161415801561275257508873ffffffffffffffffffffffffffffffffffffffff168173ffffffffffffffffffffffffffffffffffffffff16145b9450505050505b949350505050565b600033905090565b60405180610160016040528060008152602001600073ffffffffffffffffffffffffffffffffffffffff1681526020016127a1612807565b815260200160008152602001600060048111156127c1576127c0612c12565b5b8152602001600073ffffffffffffffffffffffffffffffffffffffff16815260200160008152602001600081526020016000815260200160608152602001600081525090565b6040518060c001604052806060815260200160008152602001600081526020016000815260200160008152602001600081525090565b600073ffffffffffffffffffffffffffffffffffffffff82169050919050565b6000819050919050565b600061288261287d6128788461283d565b61285d565b61283d565b9050919050565b600061289482612867565b9050919050565b60006128a682612889565b9050919050565b6128b68161289b565b82525050565b60006020820190506128d160008301846128ad565b92915050565b6000604051905090565b600080fd5b600080fd5b6000819050919050565b6128fe816128eb565b811461290957600080fd5b50565b60008135905061291b816128f5565b92915050565b600060208284031215612937576129366128e1565b5b60006129458482850161290c565b91505092915050565b612957816128eb565b82525050565b6000602082019050612972600083018461294e565b92915050565b600080fd5b600060c0828403121561299357612992612978565b5b81905092915050565b600080604083850312156129b3576129b26128e1565b5b600083013567ffffffffffffffff8111156129d1576129d06128e6565b5b6129dd8582860161297d565b92505060206129ee8582860161290c565b9150509250929050565b600081519050919050565b600082825260208201905092915050565b6000819050602082019050919050565b612a2d816128eb565b82525050565b6000612a3f8383612a24565b60208301905092915050565b6000602082019050919050565b6000612a63826129f8565b612a6d8185612a03565b9350612a7883612a14565b8060005b83811015612aa9578151612a908882612a33565b9750612a9b83612a4b565b925050600181019050612a7c565b5085935050505092915050565b60006020820190508181036000830152612ad08184612a58565b905092915050565b6000612ae38261283d565b9050919050565b612af381612ad8565b82525050565b600081519050919050565b600082825260208201905092915050565b60005b83811015612b33578082015181840152602081019050612b18565b60008484015250505050565b6000601f19601f8301169050919050565b6000612b5b82612af9565b612b658185612b04565b9350612b75818560208601612b15565b612b7e81612b3f565b840191505092915050565b600060c0830160008301518482036000860152612ba68282612b50565b9150506020830151612bbb6020860182612a24565b506040830151612bce6040860182612a24565b506060830151612be16060860182612a24565b506080830151612bf46080860182612a24565b5060a0830151612c0760a0860182612a24565b508091505092915050565b7f4e487b7100000000000000000000000000000000000000000000000000000000600052602160045260246000fd5b60058110612c5257612c51612c12565b5b50565b6000819050612c6382612c41565b919050565b6000612c7382612c55565b9050919050565b612c8381612c68565b82525050565b600082825260208201905092915050565b6000612ca582612af9565b612caf8185612c89565b9350612cbf818560208601612b15565b612cc881612b3f565b840191505092915050565b600061016082019050612ce9600083018e61294e565b612cf6602083018d612aea565b8181036040830152612d08818c612b89565b9050612d17606083018b61294e565b612d24608083018a612c7a565b612d3160a0830189612aea565b612d3e60c083018861294e565b612d4b60e083018761294e565b612d5961010083018661294e565b818103610120830152612d6c8185612c9a565b9050612d7c61014083018461294e565b9c9b505050505050505050505050565b6000819050919050565b612d9f81612d8c565b82525050565b6000602082019050612dba6000830184612d96565b92915050565b6000612dcb82612889565b9050919050565b612ddb81612dc0565b82525050565b6000602082019050612df66000830184612dd2565b92915050565b6000612e0782612889565b9050919050565b612e1781612dfc565b82525050565b6000602082019050612e326000830184612e0e565b92915050565b600080fd5b600080fd5b600080fd5b60008083601f840112612e5d57612e5c612e38565b5b8235905067ffffffffffffffff811115612e7a57612e79612e3d565b5b602083019150836001820283011115612e9657612e95612e42565b5b9250929050565b60008060008060608587031215612eb757612eb66128e1565b5b6000612ec58782880161290c565b945050602085013567ffffffffffffffff811115612ee657612ee56128e6565b5b612ef287828801612e47565b93509350506040612f058782880161290c565b91505092959194509250565b6000602082019050612f266000830184612aea565b92915050565b612f3581612ad8565b82525050565b600060c0830160008301518482036000860152612f588282612b50565b9150506020830151612f6d6020860182612a24565b506040830151612f806040860182612a24565b506060830151612f936060860182612a24565b506080830151612fa66080860182612a24565b5060a0830151612fb960a0860182612a24565b508091505092915050565b612fcd81612c68565b82525050565b600061016083016000830151612fec6000860182612a24565b506020830151612fff6020860182612f2c565b50604083015184820360408601526130178282612f3b565b915050606083015161302c6060860182612a24565b50608083015161303f6080860182612fc4565b5060a083015161305260a0860182612f2c565b5060c083015161306560c0860182612a24565b5060e083015161307860e0860182612a24565b5061010083015161308d610100860182612a24565b506101208301518482036101208601526130a78282612b50565b9150506101408301516130be610140860182612a24565b508091505092915050565b600060208201905081810360008301526130e38184612fd3565b905092915050565b60008083601f84011261310157613100612e38565b5b8235905067ffffffffffffffff81111561311e5761311d612e3d565b5b60208301915083600182028301111561313a57613139612e42565b5b9250929050565b60008060008060008060008060006101008a8c031215613164576131636128e1565b5b60006131728c828d0161290c565b99505060206131838c828d0161290c565b98505060406131948c828d0161290c565b97505060606131a58c828d0161290c565b96505060806131b68c828d0161290c565b95505060a06131c78c828d0161290c565b94505060c06131d88c828d0161290c565b93505060e08a013567ffffffffffffffff8111156131f9576131f86128e6565b5b6132058c828d016130eb565b92509250509295985092959850929598565b61322081612ad8565b811461322b57600080fd5b50565b60008135905061323d81613217565b92915050565b600060208284031215613259576132586128e1565b5b60006132678482850161322e565b91505092915050565b7f4e487b7100000000000000000000000000000000000000000000000000000000600052601160045260246000fd5b60006132aa826128eb565b91507fffffffffffffffffffffffffffffffffffffffffffffffffffffffffffffffff82036132dc576132db613270565b5b600182019050919050565b600080fd5b7f4e487b7100000000000000000000000000000000000000000000000000000000600052604160045260246000fd5b61332482612b3f565b810181811067ffffffffffffffff82111715613343576133426132ec565b5b80604052505050565b60006133566128d7565b9050613362828261331b565b919050565b600080fd5b600080fd5b600067ffffffffffffffff82111561338c5761338b6132ec565b5b61339582612b3f565b9050602081019050919050565b82818337600083830152505050565b60006133c46133bf84613371565b61334c565b9050828152602081018484840111156133e0576133df61336c565b5b6133eb8482856133a2565b509392505050565b600082601f83011261340857613407612e38565b5b81356134188482602086016133b1565b91505092915050565b600060c08284031215613437576134366132e7565b5b61344160c061334c565b9050600082013567ffffffffffffffff81111561346157613460613367565b5b61346d848285016133f3565b60008301525060206134818482850161290c565b60208301525060406134958482850161290c565b60408301525060606134a98482850161290c565b60608301525060806134bd8482850161290c565b60808301525060a06134d18482850161290c565b60a08301525092915050565b60006134e93683613421565b9050919050565b7f4e487b7100000000000000000000000000000000000000000000000000000000600052602260045260246000fd5b6000600282049050600182168061353757607f821691505b60208210810361354a576135496134f0565b5b50919050565b60008190508160005260206000209050919050565b60006020601f8301049050919050565b600082821b905092915050565b6000600883026135b27fffffffffffffffffffffffffffffffffffffffffffffffffffffffffffffffff82613575565b6135bc8683613575565b95508019841693508086168417925050509392505050565b60006135ef6135ea6135e5846128eb565b61285d565b6128eb565b9050919050565b6000819050919050565b613609836135d4565b61361d613615826135f6565b848454613582565b825550505050565b600090565b613632613625565b61363d818484613600565b505050565b5b818110156136615761365660008261362a565b600181019050613643565b5050565b601f8211156136a65761367781613550565b61368084613565565b8101602085101561368f578190505b6136a361369b85613565565b830182613642565b50505b505050565b600082821c905092915050565b60006136c9600019846008026136ab565b1980831691505092915050565b60006136e283836136b8565b9150826002028217905092915050565b6136fb82612af9565b67ffffffffffffffff811115613714576137136132ec565b5b61371e825461351f565b613729828285613665565b600060209050601f83116001811461375c576000841561374a578287015190505b61375485826136d6565b8655506137bc565b601f19841661376a86613550565b60005b828110156137925784890151825560018201915060208501945060208101905061376d565b868310156137af57848901516137ab601f8916826136b8565b8355505b6001600288020188555050505b505050505050565b7f4e487b7100000000000000000000000000000000000000000000000000000000600052603260045260246000fd5b60006137fe826128eb565b9150613809836128eb565b925082820390508181111561382157613820613270565b5b92915050565b7f4e487b7100000000000000000000000000000000000000000000000000000000600052603160045260246000fd5b600081905092915050565b50565b6000613871600083613856565b915061387c82613861565b600082019050919050565b600061389282613864565b9150819050919050565b60006138a7826128eb565b91506138b2836128eb565b92508282019050808211156138ca576138c9613270565b5b92915050565b6000815190506138df81613217565b92915050565b60006138f86138f384613371565b61334c565b9050828152602081018484840111156139145761391361336c565b5b61391f848285612b15565b509392505050565b600082601f83011261393c5761393b612e38565b5b815161394c8482602086016138e5565b91505092915050565b600081519050613964816128f5565b92915050565b60008115159050919050565b61397f8161396a565b811461398a57600080fd5b50565b60008151905061399c81613976565b92915050565b600060e082840312156139b8576139b76132e7565b5b6139c260e061334c565b905060006139d2848285016138d0565b600083015250602082015167ffffffffffffffff8111156139f6576139f5613367565b5b613a0284828501613927565b6020830152506040613a1684828501613955565b6040830152506060613a2a8482850161398d565b6060830152506080613a3e8482850161398d565b60808301525060a0613a5284828501613955565b60a08301525060c0613a6684828501613955565b60c08301525092915050565b600060208284031215613a8857613a876128e1565b5b600082015167ffffffffffffffff811115613aa657613aa56128e6565b5b613ab2848285016139a2565b91505092915050565b6000613ac6826128eb565b9150613ad1836128eb565b9250828202613adf816128eb565b91508282048414831517613af657613af5613270565b5b5092915050565b7f4e487b7100000000000000000000000000000000000000000000000000000000600052601260045260246000fd5b6000613b37826128eb565b9150613b42836128eb565b925082613b5257613b51613afd565b5b828204905092915050565b6000604082019050613b726000830185612aea565b613b7f602083018461294e565b9392505050565b600082905092915050565b613b9b8383613b86565b67ffffffffffffffff811115613bb457613bb36132ec565b5b613bbe825461351f565b613bc9828285613665565b6000601f831160018114613bf85760008415613be6578287013590505b613bf085826136d6565b865550613c58565b601f198416613c0686613550565b60005b82811015613c2e57848901358255600182019150602085019450602081019050613c09565b86831015613c4b5784890135613c47601f8916826136b8565b8355505b6001600288020188555050505b50505050505050565b6000613c6d8385612c89565b9350613c7a8385846133a2565b613c8383612b3f565b840190509392505050565b600060c082019050613ca3600083018a612aea565b613cb0602083018961294e565b613cbd6040830188612aea565b8181036060830152613cd0818688613c61565b9050613cdf608083018561294e565b613cec60a083018461294e565b98975050505050505050565b600060208284031215613d0e57613d0d6128e1565b5b6000613d1c84828501613955565b91505092915050565b60006040820190508181036000830152613d40818587613c61565b9050613d4f602083018461294e565b949350505050565b600061010082019050613d6d600083018b612d96565b613d7a602083018a61294e565b613d87604083018961294e565b613d94606083018861294e565b613da1608083018761294e565b613dae60a083018661294e565b613dbb60c083018561294e565b613dc860e083018461294e565b9998505050505050505050565b600081905092915050565b7f1901000000000000000000000000000000000000000000000000000000000000600082015250565b6000613e16600283613dd5565b9150613e2182613de0565b600282019050919050565b6000819050919050565b613e47613e4282612d8c565b613e2c565b82525050565b6000613e5882613e09565b9150613e648285613e36565b602082019150613e748284613e36565b6020820191508190509392505050565b6000604082019050613e99600083018561294e565b613ea6602083018461294e565b9392505050565b600060ff82169050919050565b6000613ec582613ead565b9150613ed083613ead565b9250828201905060ff811115613ee957613ee8613270565b5b92915050565b613ef881613ead565b82525050565b6000608082019050613f136000830187612d96565b613f206020830186613eef565b613f2d6040830185612d96565b613f3a6060830184612d96565b9594505050505056fea264697066735822122068021c420fc6ef931f15f492e3a9a25f15e6515917e686192afa809ec14c1df064736f6c63430008180033",
  "linkReferences": {},
  "deployedLinkReferences": {}
}