{
  "_format": "hh-sol-artifact-1",
  "contractName": "ProofReceipt",
  "sourceName": "contracts/src/ProofReceipt.sol",
  "abi": [
    {
      "inputs": [],
      "stateMutability": "nonpayable",
      "type": "constructor"
    },
    {
      "inputs": [
        {
          "internalType": "address",
          "name": "sender",
          "type": "address"
        },
        {
          "internalType": "uint256",
          "name": "tokenId",
          "type": "uint256"
        },
        {
          "internalType": "address",
          "name": "owner",
          "type": "address"
        }
      ],
      "name": "ERC721IncorrectOwner",
      "type": "error"
    },
    {
      "inputs": [
        {
          "internalType": "address",
          "name": "operator",
          "type": "address"
        },
        {
          "internalType": "uint256",
          "name": "tokenId",
          "type": "uint256"
        }
      ],
      "name": "ERC721InsufficientApproval",
      "type": "error"
    },
    {
      "inputs": [
        {
          "internalType": "address",
          "name": "approver",
          "type": "address"
        }
      ],
      "name": "ERC721InvalidApprover",
      "type": "error"
    },
    {
      "inputs": [
        {
          "internalType": "address",
          "name": "operator",
          "type": "address"
        }
      ],
      "name": "ERC721InvalidOperator",
      "type": "error"
    },
    {
      "inputs": [
        {
          "internalType": "address",
          "name": "owner",
          "type": "address"
        }
      ],
      "name": "ERC721InvalidOwner",
      "type": "error"
    },
    {
      "inputs": [
        {
          "internalType": "address",
          "name": "receiver",
          "type": "address"
        }
      ],
      "name": "ERC721InvalidReceiver",
      "type": "error"
    },
    {
      "inputs": [
        {
          "internalType": "address",
          "name": "sender",
          "type": "address"
        }
      ],
      "name": "ERC721InvalidSender",
      "type": "error"
    },
    {
      "inputs": [
        {
          "internalType": "uint256",
          "name": "tokenId",
          "type": "uint256"
        }
      ],
      "name": "ERC721NonexistentToken",
      "type": "error"
    },
    {
      "inputs": [
        {
          "internalType": "address",
          "name": "owner",
          "type": "address"
        }
      ],
      "name": "OwnableInvalidOwner",
      "type": "error"
    },
    {
      "inputs": [
        {
          "internalType": "address",
          "name": "account",
          "type": "address"
        }
      ],
      "name": "OwnableUnauthorizedAccount",
      "type": "error"
    },
    {
      "inputs": [],
      "name": "UnauthorizedMinter",
      "type": "error"
    },
    {
      "anonymous": false,
      "inputs": [
        {
          "indexed": true,
          "internalType": "address",
          "name": "owner",
          "type": "address"
        },
        {
          "indexed": true,
          "internalType": "address",
          "name": "approved",
          "type": "address"
        },
        {
          "indexed": true,
          "internalType": "uint256",
          "name": "tokenId",
          "type": "uint256"
        }
      ],
      "name": "Approval",
      "type": "event"
    },
    {
      "anonymous": false,
      "inputs": [
        {
          "indexed": true,
          "internalType": "address",
          "name": "owner",
          "type": "address"
        },
        {
          "indexed": true,
          "internalType": "address",
          "name": "operator",
          "type": "address"
        },
        {
          "indexed": false,
          "internalType": "bool",
          "name": "approved",
          "type": "bool"
        }
      ],
      "name": "ApprovalForAll",
      "type": "event"
    },
    {
      "anonymous": false,
      "inputs": [
        {
          "indexed": false,
          "internalType": "uint256",
          "name": "_fromTokenId",
          "type": "uint256"
        },
        {
          "indexed": false,
          "internalType": "uint256",
          "name": "_toTokenId",
          "type": "uint256"
        }
      ],
      "name": "BatchMetadataUpdate",
      "type": "event"
    },
    {
      "anonymous": false,
      "inputs": [
        {
          "indexed": false,
          "internalType": "uint256",
          "name": "_tokenId",
          "type": "uint256"
        }
      ],
      "name": "MetadataUpdate",
      "type": "event"
    },
    {
      "anonymous": false,
      "inputs": [
        {
          "indexed": true,
          "internalType": "address",
          "name": "previousOwner",
          "type": "address"
        },
        {
          "indexed": true,
          "internalType": "address",
          "name": "newOwner",
          "type": "address"
        }
      ],
      "name": "OwnershipTransferred",
      "type": "event"
    },
    {
      "anonymous": false,
      "inputs": [
        {
          "indexed": true,
          "internalType": "uint256",
          "name": "tokenId",
          "type": "uint256"
        },
        {
          "indexed": true,
          "internalType": "uint256",
          "name": "jobId",
          "type": "uint256"
        },
        {
          "indexed": true,
          "internalType": "address",
          "name": "user",
          "type": "address"
        },
        {
          "indexed": false,
          "internalType": "address",
          "name": "provider",
          "type": "address"
        },
        {
          "indexed": false,
          "internalType": "string",
          "name": "resultCID",
          "type": "string"
        },
        {
          "indexed": false,
          "internalType": "uint256",
          "name": "cost",
          "type": "uint256"
        }
      ],
      "name": "ReceiptMinted",
      "type": "event"
    },
    {
      "anonymous": false,
      "inputs": [
        {
          "indexed": true,
          "internalType": "address",
          "name": "from",
          "type": "address"
        },
        {
          "indexed": true,
          "internalType": "address",
          "name": "to",
          "type": "address"
        },
        {
          "indexed": true,
          "internalType": "uint256",
          "name": "tokenId",
          "type": "uint256"
        }
      ],
      "name": "Transfer",
      "type": "event"
    },
    {
      "inputs": [
        {
          "internalType": "address",
          "name": "to",
          "type": "address"
        },
        {
          "internalType": "uint256",
          "name": "tokenId",
          "type": "uint256"
        }
      ],
      "name": "approve",
      "outputs": [],
      "stateMutability": "nonpayable",
      "type": "function"
    },
    {
      "inputs": [
        {
          "internalType": "address",
          "name": "owner",
          "type": "address"
        }
      ],
      "name": "balanceOf",
      "outputs": [
        {
          "internalType": "uint256",
          "name": "",
          "type": "uint256"
        }
      ],
      "stateMutability": "view",
      "type": "function"
    },
    {
      "inputs": [
        {
          "internalType": "uint256",
          "name": "tokenId",
          "type": "uint256"
        }
      ],
      "name": "getApproved",
      "outputs": [
        {
          "internalType": "address",
          "name": "",
          "type": "address"
        }
      ],
      "stateMutability": "view",
      "type": "function"
    },
    {
      "inputs": [
        {
          "internalType": "uint256",
          "name": "tokenId",
          "type": "uint256"
        }
      ],
      "name": "getReceipt",
      "outputs": [
        {
          "components": [
            {
              "internalType": "uint256",
              "name": "jobId",
              "type": "uint256"
            },
            {
              "internalType": "address",
              "name": "provider",
              "type": "address"
            },
            {
              "internalType": "string",
              "name": "resultCID",
              "type": "string"
            },
            {
              "internalType": "uint256",
              "name": "instructionCount",
              "type": "uint256"
            },
            {
              "internalType": "uint256",
              "name": "cost",
              "type": "uint256"
            },
            {
              "internalType": "uint256",
              "name": "timestamp",
              "type": "uint256"
            }
          ],
          "internalType": "struct ProofReceipt.Receipt",
          "name": "",
          "type": "tuple"
        }
      ],
      "stateMutability": "view",
      "type": "function"
    },
    {
      "inputs": [
        {
          "internalType": "address",
          "name": "owner",
          "type": "address"
        },
        {
          "internalType": "address",
          "name": "operator",
          "type": "address"
        }
      ],
      "name": "isApprovedForAll",
      "outputs": [
        {
          "internalType": "bool",
          "name": "",
          "type": "bool"
        }
      ],
      "stateMutability": "view",
      "type": "function"
    },
    {
      "inputs": [
        {
          "internalType": "address",
          "name": "to",
          "type": "address"
        },
        {
          "internalType": "uint256",
          "name": "jobId",
          "type": "uint256"
        },
        {
          "internalType": "address",
          "name": "provider",
          "type": "address"
        },
        {
          "internalType": "string",
          "name": "resultCID",
          "type": "string"
        },
        {
          "internalType": "uint256",
          "name": "instructionCount",
          "type": "uint256"
        },
        {
          "internalType": "uint256",
          "name": "cost",
          "type": "uint256"
        }
      ],
      "name": "mintReceipt",
      "outputs": [
        {
          "internalType": "uint256",
          "name": "",
          "type": "uint256"
        }
      ],
      "stateMutability": "nonpayable",
      "type": "function"
    },
    {
      "inputs": [],
      "name": "name",
      "outputs": [
        {
          "internalType": "string",
          "name": "",
          "type": "string"
        }
      ],
      "stateMutability": "view",
      "type": "function"
    },
    {
      "inputs": [],
      "name": "owner",
      "outputs": [
        {
          "internalType": "address",
          "name": "",
          "type": "address"
        }
      ],
      "stateMutability": "view",
      "type": "function"
    },
    {
      "inputs": [
        {
          "internalType": "uint256",
          "name": "tokenId",
          "type": "uint256"
        }
      ],
      "name": "ownerOf",
      "outputs": [
        {
          "internalType": "address",
          "name": "",
          "type": "address"
        }
      ],
      "stateMutability": "view",
      "type": "function"
    },
    {
      "inputs": [
        {
          "internalType": "uint256",
          "name": "",
          "type": "uint256"
        }
      ],
      "name": "receipts",
      "outputs": [
        {
          "internalType": "uint256",
          "name": "jobId",
          "type": "uint256"
        },
        {
          "internalType": "address",
          "name": "provider",
          "type": "address"
        },
        {
          "internalType": "string",
          "name": "resultCID",
          "type": "string"
        },
        {
          "internalType": "uint256",
          "name": "instructionCount",
          "type": "uint256"
        },
        {
          "internalType": "uint256",
          "name": "cost",
          "type": "uint256"
        },
        {
          "internalType": "uint256",
          "name": "timestamp",
          "type": "uint256"
        }
      ],
      "stateMutability": "view",
      "type": "function"
    },
    {
      "inputs": [],
      "name": "renounceOwnership",
      "outputs": [],
      "stateMutability": "nonpayable",
      "type": "function"
    },
    {
      "inputs": [
        {
          "internalType": "address",
          "name": "from",
          "type": "address"
        },
        {
          "internalType": "address",
          "name": "to",
          "type": "address"
        },
        {
          "internalType": "uint256",
          "name": "tokenId",
          "type": "uint256"
        }
      ],
      "name": "safeTransferFrom",
      "outputs": [],
      "stateMutability": "nonpayable",
      "type": "function"
    },
    {
      "inputs": [
        {
          "internalType": "address",
          "name": "from",
          "type": "address"
        },
        {
          "internalType": "address",
          "name": "to",
          "type": "address"
        },
        {
          "internalType": "uint256",
          "name": "tokenId",
          "type": "uint256"
        },
        {
          "internalType": "bytes",
          "name": "data",
          "type": "bytes"
        }
      ],
      "name": "safeTransferFrom",
      "outputs": [],
      "stateMutability": "nonpayable",
      "type": "function"
    },
    {
      "inputs": [
        {
          "internalType": "address",
          "name": "operator",
          "type": "address"
        },
        {
          "internalType": "bool",
          "name": "approved",
          "type": "bool"
        }
      ],
      "name": "setApprovalForAll",
      "outputs": [],
      "stateMutability": "nonpayable",
      "type": "function"
    },
    {
      "inputs": [
        {
          "internalType": "bytes4",
          "name": "interfaceId",
          "type": "bytes4"
        }
      ],
      "name": "supportsInterface",
      "outputs": [
        {
          "internalType": "bool",
          "name": "",
          "type": "bool"
        }
      ],
      "stateMutability": "view",
      "type": "function"
    },
    {
      "inputs": [],
      "name": "symbol",
      "outputs": [
        {
          "internalType": "string",
          "name": "",
          "type": "string"
        }
      ],
      "stateMutability": "view",
      "type": "function"
    },
    {
      "inputs": [],
      "name": "tokenCounter",
      "outputs": [
        {
          "internalType": "uint256",
          "name": "",
          "type": "uint256"
        }
      ],
      "stateMutability": "view",
      "type": "function"
    },
    {
      "inputs": [
        {
          "internalType": "uint256",
          "name": "tokenId",
          "type": "uint256"
        }
      ],
      "name": "tokenURI",
      "outputs": [
        {
          "internalType": "string",
          "name": "",
          "type": "string"
        }
      ],
      "stateMutability": "view",
      "type": "function"
    },
    {
      "inputs": [
        {
          "internalType": "address",
          "name": "from",
          "type": "address"
        },
        {
          "internalType": "address",
          "name": "to",
          "type": "address"
        },
        {
          "internalType": "uint256",
          "name": "tokenId",
          "type": "uint256"
        }
      ],
      "name": "transferFrom",
      "outputs": [],
      "stateMutability": "nonpayable",
      "type": "function"
    },
    {
      "inputs": [
        {
          "internalType": "address",
          "name": "newOwner",
          "type": "address"
        }
      ],
      "name": "transferOwnership",
      "outputs": [],
      "stateMutability": "nonpayable",
      "type": "function"
    }
  ],
  "bytecode": "0x60806040523480156200001157600080fd5b50336040518060400160405280601781526020017f4449434f4d505554452050726f6f6620526563656970740000000000000000008152506040518060400160405280600481526020017f444350520000000000000000000000000000000000000000000000000000000081525081600090816200009091906200047a565b508060019081620000a291906200047a565b505050600073ffffffffffffffffffffffffffffffffffffffff168173ffffffffffffffffffffffffffffffffffffffff16036200011a5760006040517f1e4fbdf7000000000000000000000000000000000000000000000000000000008152600401620001119190620005a6565b60405180910390fd5b6200012b816200013a60201b60201c565b506000600881905550620005c3565b6000600760009054906101000a900473ffffffffffffffffffffffffffffffffffffffff16905081600760006101000a81548173ffffffffffffffffffffffffffffffffffffffff021916908373ffffffffffffffffffffffffffffffffffffffff1602179055508173ffffffffffffffffffffffffffffffffffffffff168173ffffffffffffffffffffffffffffffffffffffff167f8be0079c531659141344cd1fd0a4f28419497f9722a3daafe3b4186f6b6457e060405160405180910390a35050565b600081519050919050565b7f4e487b7100000000000000000000000000000000000000000000000000000000600052604160045260246000fd5b7f4e487b7100000000000000000000000000000000000000000000000000000000600052602260045260246000fd5b600060028204905060018216806200028257607f821691505b6020821081036200029857620002976200023a565b5b50919050565b60008190508160005260206000209050919050565b60006020601f8301049050919050565b600082821b905092915050565b600060088302620003027fffffffffffffffffffffffffffffffffffffffffffffffffffffffffffffffff82620002c3565b6200030e8683620002c3565b95508019841693508086168417925050509392505050565b6000819050919050565b6000819050919050565b60006200035b620003556200034f8462000326565b62000330565b62000326565b9050919050565b6000819050919050565b62000377836200033a565b6200038f620003868262000362565b848454620002d0565b825550505050565b600090565b620003a662000397565b620003b38184846200036c565b505050565b5b81811015620003db57620003cf6000826200039c565b600181019050620003b9565b5050565b601f8211156200042a57620003f4816200029e565b620003ff84620002b3565b810160208510156200040f578190505b620004276200041e85620002b3565b830182620003b8565b50505b505050565b600082821c905092915050565b60006200044f600019846008026200042f565b1980831691505092915050565b60006200046a83836200043c565b9150826002028217905092915050565b620004858262000200565b67ffffffffffffffff811115620004a157620004a06200020b565b5b620004ad825462000269565b620004ba828285620003df565b600060209050601f831160018114620004f25760008415620004dd578287015190505b620004e985826200045c565b86555062000559565b601f19841662000502866200029e565b60005b828110156200052c5784890151825560018201915060208501945060208101905062000505565b868310156200054c578489015162000548601f8916826200043c565b8355505b6001600288020188555050505b505050505050565b600073ffffffffffffffffffffffffffffffffffffffff82169050919050565b60006200058e8262000561565b9050919050565b620005a08162000581565b82525050565b6000602082019050620005bd600083018462000595565b92915050565b612d2980620005d36000396000f3fe608060405234801561001057600080fd5b506004361061012c5760003560e01c8063715018a6116100ad578063b88d4fde11610071578063b88d4fde1461035a578063c87b56dd14610376578063d082e381146103a6578063e985e9c5146103c4578063f2fde38b146103f45761012c565b8063715018a6146102c85780638da5cb5b146102d257806395d89b41146102f0578063a22cb4651461030e578063b63e6ac31461032a5761012c565b806323b872dd116100f457806323b872dd1461020057806329487d7d1461021c57806342842e0e1461024c5780636352211e1461026857806370a08231146102985761012c565b806301ffc9a71461013157806306fdde0314610161578063081812fc1461017f578063095ea7b3146101af5780630f7ee1ec146101cb575b600080fd5b61014b60048036038101906101469190611f87565b610410565b6040516101589190611fcf565b60405180910390f35b610169610422565b604051610176919061207a565b60405180910390f35b610199600480360381019061019491906120d2565b6104b4565b6040516101a69190612140565b60405180910390f35b6101c960048036038101906101c49190612187565b6104d0565b005b6101e560048036038101906101e091906120d2565b6104e6565b6040516101f7969594939291906121d6565b60405180910390f35b61021a6004803603810190610215919061223e565b6105ca565b005b610236600480360381019061023191906122f6565b6106cc565b60405161024391906123a5565b60405180910390f35b6102666004803603810190610261919061223e565b6108ea565b005b610282600480360381019061027d91906120d2565b61090a565b60405161028f9190612140565b60405180910390f35b6102b260048036038101906102ad91906123c0565b61091c565b6040516102bf91906123a5565b60405180910390f35b6102d06109d6565b005b6102da6109ea565b6040516102e79190612140565b60405180910390f35b6102f8610a14565b604051610305919061207a565b60405180910390f35b61032860048036038101906103239190612419565b610aa6565b005b610344600480360381019061033f91906120d2565b610abc565b604051610351919061254a565b60405180910390f35b610374600480360381019061036f919061269c565b610bf9565b005b610390600480360381019061038b91906120d2565b610c16565b60405161039d919061207a565b60405180910390f35b6103ae610c28565b6040516103bb91906123a5565b60405180910390f35b6103de60048036038101906103d9919061271f565b610c2e565b6040516103eb9190611fcf565b60405180910390f35b61040e600480360381019061040991906123c0565b610cc2565b005b600061041b82610d48565b9050919050565b6060600080546104319061278e565b80601f016020809104026020016040519081016040528092919081815260200182805461045d9061278e565b80156104aa5780601f1061047f576101008083540402835291602001916104aa565b820191906000526020600020905b81548152906001019060200180831161048d57829003601f168201915b5050505050905090565b60006104bf82610da9565b506104c982610e31565b9050919050565b6104e282826104dd610e6e565b610e76565b5050565b60096020528060005260406000206000915090508060000154908060010160009054906101000a900473ffffffffffffffffffffffffffffffffffffffff16908060020180546105359061278e565b80601f01602080910402602001604051908101604052809291908181526020018280546105619061278e565b80156105ae5780601f10610583576101008083540402835291602001916105ae565b820191906000526020600020905b81548152906001019060200180831161059157829003601f168201915b5050505050908060030154908060040154908060050154905086565b600073ffffffffffffffffffffffffffffffffffffffff168273ffffffffffffffffffffffffffffffffffffffff160361063c5760006040517f64a0ae920000000000000000000000000000000000000000000000000000000081526004016106339190612140565b60405180910390fd5b6000610650838361064b610e6e565b610e88565b90508373ffffffffffffffffffffffffffffffffffffffff168173ffffffffffffffffffffffffffffffffffffffff16146106c6578382826040517f64283d7b0000000000000000000000000000000000000000000000000000000081526004016106bd939291906127bf565b60405180910390fd5b50505050565b60006106d66109ea565b73ffffffffffffffffffffffffffffffffffffffff163373ffffffffffffffffffffffffffffffffffffffff161461073a576040517f955c501b00000000000000000000000000000000000000000000000000000000815260040160405180910390fd5b6008600081548092919061074d90612825565b9190505550600060085490506040518060c001604052808981526020018873ffffffffffffffffffffffffffffffffffffffff16815260200187878080601f016020809104026020016040519081016040528093929190818152602001838380828437600081840152601f19601f82011690508083019250505050505050815260200185815260200184815260200142815250600960008381526020019081526020016000206000820151816000015560208201518160010160006101000a81548173ffffffffffffffffffffffffffffffffffffffff021916908373ffffffffffffffffffffffffffffffffffffffff16021790555060408201518160020190816108599190612a19565b50606082015181600301556080820151816004015560a0820151816005015590505061088589826110a2565b8873ffffffffffffffffffffffffffffffffffffffff1688827fba056bfd03d70e17794dea7a83b3210b23209a6b1a9a131145d996bed61f0eb48a8a8a896040516108d39493929190612b18565b60405180910390a480915050979650505050505050565b61090583838360405180602001604052806000815250610bf9565b505050565b600061091582610da9565b9050919050565b60008073ffffffffffffffffffffffffffffffffffffffff168273ffffffffffffffffffffffffffffffffffffffff160361098f5760006040517f89c62b640000000000000000000000000000000000000000000000000000000081526004016109869190612140565b60405180910390fd5b600360008373ffffffffffffffffffffffffffffffffffffffff1673ffffffffffffffffffffffffffffffffffffffff168152602001908152602001600020549050919050565b6109de6110c0565b6109e86000611147565b565b6000600760009054906101000a900473ffffffffffffffffffffffffffffffffffffffff16905090565b606060018054610a239061278e565b80601f0160208091040260200160405190810160405280929190818152602001828054610a4f9061278e565b8015610a9c5780601f10610a7157610100808354040283529160200191610a9c565b820191906000526020600020905b815481529060010190602001808311610a7f57829003601f168201915b5050505050905090565b610ab8610ab1610e6e565b838361120d565b5050565b610ac4611ecf565b600960008381526020019081526020016000206040518060c0016040529081600082015481526020016001820160009054906101000a900473ffffffffffffffffffffffffffffffffffffffff1673ffffffffffffffffffffffffffffffffffffffff1673ffffffffffffffffffffffffffffffffffffffff168152602001600282018054610b529061278e565b80601f0160208091040260200160405190810160405280929190818152602001828054610b7e9061278e565b8015610bcb5780601f10610ba057610100808354040283529160200191610bcb565b820191906000526020600020905b815481529060010190602001808311610bae57829003601f168201915b5050505050815260200160038201548152602001600482015481526020016005820154815250509050919050565b610c048484846105ca565b610c108484848461137c565b50505050565b6060610c2182611533565b9050919050565b60085481565b6000600560008473ffffffffffffffffffffffffffffffffffffffff1673ffffffffffffffffffffffffffffffffffffffff16815260200190815260200160002060008373ffffffffffffffffffffffffffffffffffffffff1673ffffffffffffffffffffffffffffffffffffffff16815260200190815260200160002060009054906101000a900460ff16905092915050565b610cca6110c0565b600073ffffffffffffffffffffffffffffffffffffffff168173ffffffffffffffffffffffffffffffffffffffff1603610d3c5760006040517f1e4fbdf7000000000000000000000000000000000000000000000000000000008152600401610d339190612140565b60405180910390fd5b610d4581611147565b50565b6000634906490660e01b7bffffffffffffffffffffffffffffffffffffffffffffffffffffffff1916827bffffffffffffffffffffffffffffffffffffffffffffffffffffffff19161480610da25750610da182611646565b5b9050919050565b600080610db583611728565b9050600073ffffffffffffffffffffffffffffffffffffffff168173ffffffffffffffffffffffffffffffffffffffff1603610e2857826040517f7e273289000000000000000000000000000000000000000000000000000000008152600401610e1f91906123a5565b60405180910390fd5b80915050919050565b60006004600083815260200190815260200160002060009054906101000a900473ffffffffffffffffffffffffffffffffffffffff169050919050565b600033905090565b610e838383836001611765565b505050565b600080610e9484611728565b9050600073ffffffffffffffffffffffffffffffffffffffff168373ffffffffffffffffffffffffffffffffffffffff1614610ed657610ed581848661192a565b5b600073ffffffffffffffffffffffffffffffffffffffff168173ffffffffffffffffffffffffffffffffffffffff1614610f6757610f18600085600080611765565b6001600360008373ffffffffffffffffffffffffffffffffffffffff1673ffffffffffffffffffffffffffffffffffffffff168152602001908152602001600020600082825403925050819055505b600073ffffffffffffffffffffffffffffffffffffffff168573ffffffffffffffffffffffffffffffffffffffff1614610fea576001600360008773ffffffffffffffffffffffffffffffffffffffff1673ffffffffffffffffffffffffffffffffffffffff168152602001908152602001600020600082825401925050819055505b846002600086815260200190815260200160002060006101000a81548173ffffffffffffffffffffffffffffffffffffffff021916908373ffffffffffffffffffffffffffffffffffffffff160217905550838573ffffffffffffffffffffffffffffffffffffffff168273ffffffffffffffffffffffffffffffffffffffff167fddf252ad1be2c89b69c2b068fc378daa952ba7f163c4a11628f55a4df523b3ef60405160405180910390a4809150509392505050565b6110bc8282604051806020016040528060008152506119ee565b5050565b6110c8610e6e565b73ffffffffffffffffffffffffffffffffffffffff166110e66109ea565b73ffffffffffffffffffffffffffffffffffffffff161461114557611109610e6e565b6040517f118cdaa700000000000000000000000000000000000000000000000000000000815260040161113c9190612140565b60405180910390fd5b565b6000600760009054906101000a900473ffffffffffffffffffffffffffffffffffffffff16905081600760006101000a81548173ffffffffffffffffffffffffffffffffffffffff021916908373ffffffffffffffffffffffffffffffffffffffff1602179055508173ffffffffffffffffffffffffffffffffffffffff168173ffffffffffffffffffffffffffffffffffffffff167f8be0079c531659141344cd1fd0a4f28419497f9722a3daafe3b4186f6b6457e060405160405180910390a35050565b600073ffffffffffffffffffffffffffffffffffffffff168273ffffffffffffffffffffffffffffffffffffffff160361127e57816040517f5b08ba180000000000000000000000000000000000000000000000000000000081526004016112759190612140565b60405180910390fd5b80600560008573ffffffffffffffffffffffffffffffffffffffff1673ffffffffffffffffffffffffffffffffffffffff16815260200190815260200160002060008473ffffffffffffffffffffffffffffffffffffffff1673ffffffffffffffffffffffffffffffffffffffff16815260200190815260200160002060006101000a81548160ff0219169083151502179055508173ffffffffffffffffffffffffffffffffffffffff168373ffffffffffffffffffffffffffffffffffffffff167f17307eab39ab6107e8899845ad3d59bd9653f200f220920489ca2b5937696c318360405161136f9190611fcf565b60405180910390a3505050565b60008373ffffffffffffffffffffffffffffffffffffffff163b111561152d578273ffffffffffffffffffffffffffffffffffffffff1663150b7a026113c0610e6e565b8685856040518563ffffffff1660e01b81526004016113e29493929190612bad565b6020604051808303816000875af192505050801561141e57506040513d601f19601f8201168201806040525081019061141b9190612c0e565b60015b6114a2573d806000811461144e576040519150601f19603f3d011682016040523d82523d6000602084013e611453565b606091505b50600081510361149a57836040517f64a0ae920000000000000000000000000000000000000000000000000000000081526004016114919190612140565b60405180910390fd5b805181602001fd5b63150b7a0260e01b7bffffffffffffffffffffffffffffffffffffffffffffffffffffffff1916817bffffffffffffffffffffffffffffffffffffffffffffffffffffffff19161461152b57836040517f64a0ae920000000000000000000000000000000000000000000000000000000081526004016115229190612140565b60405180910390fd5b505b50505050565b606061153e82610da9565b50600060066000848152602001908152602001600020805461155f9061278e565b80601f016020809104026020016040519081016040528092919081815260200182805461158b9061278e565b80156115d85780601f106115ad576101008083540402835291602001916115d8565b820191906000526020600020905b8154815290600101906020018083116115bb57829003601f168201915b5050505050905060006115e9611a0a565b905060008151036115fe578192505050611641565b60008251111561163357808260405160200161161b929190612c77565b60405160208183030381529060405292505050611641565b61163c84611a21565b925050505b919050565b60007f80ac58cd000000000000000000000000000000000000000000000000000000007bffffffffffffffffffffffffffffffffffffffffffffffffffffffff1916827bffffffffffffffffffffffffffffffffffffffffffffffffffffffff1916148061171157507f5b5e139f000000000000000000000000000000000000000000000000000000007bffffffffffffffffffffffffffffffffffffffffffffffffffffffff1916827bffffffffffffffffffffffffffffffffffffffffffffffffffffffff1916145b80611721575061172082611a8a565b5b9050919050565b60006002600083815260200190815260200160002060009054906101000a900473ffffffffffffffffffffffffffffffffffffffff169050919050565b808061179e5750600073ffffffffffffffffffffffffffffffffffffffff168273ffffffffffffffffffffffffffffffffffffffff1614155b156118d25760006117ae84610da9565b9050600073ffffffffffffffffffffffffffffffffffffffff168373ffffffffffffffffffffffffffffffffffffffff161415801561181957508273ffffffffffffffffffffffffffffffffffffffff168173ffffffffffffffffffffffffffffffffffffffff1614155b801561182c575061182a8184610c2e565b155b1561186e57826040517fa9fbf51f0000000000000000000000000000000000000000000000000000000081526004016118659190612140565b60405180910390fd5b81156118d057838573ffffffffffffffffffffffffffffffffffffffff168273ffffffffffffffffffffffffffffffffffffffff167f8c5be1e5ebec7d5bd14f71427d1e84f3dd0314c0f7b2291e5b200ac8c7c3b92560405160405180910390a45b505b836004600085815260200190815260200160002060006101000a81548173ffffffffffffffffffffffffffffffffffffffff021916908373ffffffffffffffffffffffffffffffffffffffff16021790555050505050565b611935838383611af4565b6119e957600073ffffffffffffffffffffffffffffffffffffffff168373ffffffffffffffffffffffffffffffffffffffff16036119aa57806040517f7e2732890000000000000000000000000000000000000000000000000000000081526004016119a191906123a5565b60405180910390fd5b81816040517f177e802f0000000000000000000000000000000000000000000000000000000081526004016119e0929190612c9b565b60405180910390fd5b505050565b6119f88383611bb5565b611a05600084848461137c565b505050565b606060405180602001604052806000815250905090565b6060611a2c82610da9565b506000611a37611a0a565b90506000815111611a575760405180602001604052806000815250611a82565b80611a6184611cae565b604051602001611a72929190612c77565b6040516020818303038152906040525b915050919050565b60007f01ffc9a7000000000000000000000000000000000000000000000000000000007bffffffffffffffffffffffffffffffffffffffffffffffffffffffff1916827bffffffffffffffffffffffffffffffffffffffffffffffffffffffff1916149050919050565b60008073ffffffffffffffffffffffffffffffffffffffff168373ffffffffffffffffffffffffffffffffffffffff1614158015611bac57508273ffffffffffffffffffffffffffffffffffffffff168473ffffffffffffffffffffffffffffffffffffffff161480611b6d5750611b6c8484610c2e565b5b80611bab57508273ffffffffffffffffffffffffffffffffffffffff16611b9383610e31565b73ffffffffffffffffffffffffffffffffffffffff16145b5b90509392505050565b600073ffffffffffffffffffffffffffffffffffffffff168273ffffffffffffffffffffffffffffffffffffffff1603611c275760006040517f64a0ae92000000000000000000000000000000000000000000000000000000008152600401611c1e9190612140565b60405180910390fd5b6000611c3583836000610e88565b9050600073ffffffffffffffffffffffffffffffffffffffff168173ffffffffffffffffffffffffffffffffffffffff1614611ca95760006040517f73c6ac6e000000000000000000000000000000000000000000000000000000008152600401611ca09190612140565b60405180910390fd5b505050565b606060006001611cbd84611d7c565b01905060008167ffffffffffffffff811115611cdc57611cdb612571565b5b6040519080825280601f01601f191660200182016040528015611d0e5781602001600182028036833780820191505090505b509050600082602001820190505b600115611d71578080600190039150507f3031323334353637383961626364656600000000000000000000000000000000600a86061a8153600a8581611d6557611d64612cc4565b5b04945060008503611d1c575b819350505050919050565b600080600090507a184f03e93ff9f4daa797ed6e38ed64bf6a1f0100000000000000008310611dda577a184f03e93ff9f4daa797ed6e38ed64bf6a1f0100000000000000008381611dd057611dcf612cc4565b5b0492506040810190505b6d04ee2d6d415b85acef81000000008310611e17576d04ee2d6d415b85acef81000000008381611e0d57611e0c612cc4565b5b0492506020810190505b662386f26fc100008310611e4657662386f26fc100008381611e3c57611e3b612cc4565b5b0492506010810190505b6305f5e1008310611e6f576305f5e1008381611e6557611e64612cc4565b5b0492506008810190505b6127108310611e94576127108381611e8a57611e89612cc4565b5b0492506004810190505b60648310611eb75760648381611ead57611eac612cc4565b5b0492506002810190505b600a8310611ec6576001810190505b80915050919050565b6040518060c0016040528060008152602001600073ffffffffffffffffffffffffffffffffffffffff168152602001606081526020016000815260200160008152602001600081525090565b6000604051905090565b600080fd5b600080fd5b60007fffffffff0000000000000000000000000000000000000000000000000000000082169050919050565b611f6481611f2f565b8114611f6f57600080fd5b50565b600081359050611f8181611f5b565b92915050565b600060208284031215611f9d57611f9c611f25565b5b6000611fab84828501611f72565b91505092915050565b60008115159050919050565b611fc981611fb4565b82525050565b6000602082019050611fe46000830184611fc0565b92915050565b600081519050919050565b600082825260208201905092915050565b60005b83811015612024578082015181840152602081019050612009565b60008484015250505050565b6000601f19601f8301169050919050565b600061204c82611fea565b6120568185611ff5565b9350612066818560208601612006565b61206f81612030565b840191505092915050565b600060208201905081810360008301526120948184612041565b905092915050565b6000819050919050565b6120af8161209c565b81146120ba57600080fd5b50565b6000813590506120cc816120a6565b92915050565b6000602082840312156120e8576120e7611f25565b5b60006120f6848285016120bd565b91505092915050565b600073ffffffffffffffffffffffffffffffffffffffff82169050919050565b600061212a826120ff565b9050919050565b61213a8161211f565b82525050565b60006020820190506121556000830184612131565b92915050565b6121648161211f565b811461216f57600080fd5b50565b6000813590506121818161215b565b92915050565b6000806040838503121561219e5761219d611f25565b5b60006121ac85828601612172565b92505060206121bd858286016120bd565b9150509250929050565b6121d08161209c565b82525050565b600060c0820190506121eb60008301896121c7565b6121f86020830188612131565b818103604083015261220a8187612041565b905061221960608301866121c7565b61222660808301856121c7565b61223360a08301846121c7565b979650505050505050565b60008060006060848603121561225757612256611f25565b5b600061226586828701612172565b935050602061227686828701612172565b9250506040612287868287016120bd565b9150509250925092565b600080fd5b600080fd5b600080fd5b60008083601f8401126122b6576122b5612291565b5b8235905067ffffffffffffffff8111156122d3576122d2612296565b5b6020830191508360018202830111156122ef576122ee61229b565b5b9250929050565b600080600080600080600060c0888a03121561231557612314611f25565b5b60006123238a828b01612172565b97505060206123348a828b016120bd565b96505060406123458a828b01612172565b955050606088013567ffffffffffffffff81111561236657612365611f2a565b5b6123728a828b016122a0565b945094505060806123858a828b016120bd565b92505060a06123968a828b016120bd565b91505092959891949750929550565b60006020820190506123ba60008301846121c7565b92915050565b6000602082840312156123d6576123d5611f25565b5b60006123e484828501612172565b91505092915050565b6123f681611fb4565b811461240157600080fd5b50565b600081359050612413816123ed565b92915050565b600080604083850312156124305761242f611f25565b5b600061243e85828601612172565b925050602061244f85828601612404565b9150509250929050565b6124628161209c565b82525050565b6124718161211f565b82525050565b600082825260208201905092915050565b600061249382611fea565b61249d8185612477565b93506124ad818560208601612006565b6124b681612030565b840191505092915050565b600060c0830160008301516124d96000860182612459565b5060208301516124ec6020860182612468565b50604083015184820360408601526125048282612488565b91505060608301516125196060860182612459565b50608083015161252c6080860182612459565b5060a083015161253f60a0860182612459565b508091505092915050565b6000602082019050818103600083015261256481846124c1565b905092915050565b600080fd5b7f4e487b7100000000000000000000000000000000000000000000000000000000600052604160045260246000fd5b6125a982612030565b810181811067ffffffffffffffff821117156125c8576125c7612571565b5b80604052505050565b60006125db611f1b565b90506125e782826125a0565b919050565b600067ffffffffffffffff82111561260757612606612571565b5b61261082612030565b9050602081019050919050565b82818337600083830152505050565b600061263f61263a846125ec565b6125d1565b90508281526020810184848401111561265b5761265a61256c565b5b61266684828561261d565b509392505050565b600082601f83011261268357612682612291565b5b813561269384826020860161262c565b91505092915050565b600080600080608085870312156126b6576126b5611f25565b5b60006126c487828801612172565b94505060206126d587828801612172565b93505060406126e6878288016120bd565b925050606085013567ffffffffffffffff81111561270757612706611f2a565b5b6127138782880161266e565b91505092959194509250565b6000806040838503121561273657612735611f25565b5b600061274485828601612172565b925050602061275585828601612172565b9150509250929050565b7f4e487b7100000000000000000000000000000000000000000000000000000000600052602260045260246000fd5b600060028204905060018216806127a657607f821691505b6020821081036127b9576127b861275f565b5b50919050565b60006060820190506127d46000830186612131565b6127e160208301856121c7565b6127ee6040830184612131565b949350505050565b7f4e487b7100000000000000000000000000000000000000000000000000000000600052601160045260246000fd5b60006128308261209c565b91507fffffffffffffffffffffffffffffffffffffffffffffffffffffffffffffffff8203612862576128616127f6565b5b600182019050919050565b60008190508160005260206000209050919050565b60006020601f8301049050919050565b600082821b905092915050565b6000600883026128cf7fffffffffffffffffffffffffffffffffffffffffffffffffffffffffffffffff82612892565b6128d98683612892565b95508019841693508086168417925050509392505050565b6000819050919050565b600061291661291161290c8461209c565b6128f1565b61209c565b9050919050565b6000819050919050565b612930836128fb565b61294461293c8261291d565b84845461289f565b825550505050565b600090565b61295961294c565b612964818484612927565b505050565b5b818110156129885761297d600082612951565b60018101905061296a565b5050565b601f8211156129cd5761299e8161286d565b6129a784612882565b810160208510156129b6578190505b6129ca6129c285612882565b830182612969565b50505b505050565b600082821c905092915050565b60006129f0600019846008026129d2565b1980831691505092915050565b6000612a0983836129df565b9150826002028217905092915050565b612a2282611fea565b67ffffffffffffffff811115612a3b57612a3a612571565b5b612a45825461278e565b612a5082828561298c565b600060209050601f831160018114612a835760008415612a71578287015190505b612a7b85826129fd565b865550612ae3565b601f198416612a918661286d565b60005b82811015612ab957848901518255600182019150602085019450602081019050612a94565b86831015612ad65784890151612ad2601f8916826129df565b8355505b6001600288020188555050505b505050505050565b6000612af78385611ff5565b9350612b0483858461261d565b612b0d83612030565b840190509392505050565b6000606082019050612b2d6000830187612131565b8181036020830152612b40818587612aeb565b9050612b4f60408301846121c7565b95945050505050565b600081519050919050565b600082825260208201905092915050565b6000612b7f82612b58565b612b898185612b63565b9350612b99818560208601612006565b612ba281612030565b840191505092915050565b6000608082019050612bc26000830187612131565b612bcf6020830186612131565b612bdc60408301856121c7565b8181036060830152612bee8184612b74565b905095945050505050565b600081519050612c0881611f5b565b92915050565b600060208284031215612c2457612c23611f25565b5b6000612c3284828501612bf9565b91505092915050565b600081905092915050565b6000612c5182611fea565b612c5b8185612c3b565b9350612c6b818560208601612006565b80840191505092915050565b6000612c838285612c46565b9150612c8f8284612c46565b91508190509392505050565b6000604082019050612cb06000830185612131565b612cbd60208301846121c7565b9392505050565b7f4e487b7100000000000000000000000000000000000000000000000000000000600052601260045260246000fdfea26469706673582212206e9b36d99bb70874a0c2f9e74f6cfe9250ec4a6b95f2bb286a4e01c2faf370fe64736f6c63430008180033",
  "linkReferences": {},
  "deployedLinkReferences": {}
}